:020000040800F2
:100000007006002029020008FF0C00086D0C000893
:10001000FD0C000817040008AD0D000800000000EA
:10002000000000000000000000000000030D0008B8
:100030001904000800000000010D0008050D00086B
:10004000430200084302000843020008430200087C
:10005000430200084302000843020008430200086C
:10006000430200084302000843020008430200085C
:10007000430200084302000843020008430200084C
:10008000430200084302000843020008430200083C
:10009000430200084302000843020008430200082C
:1000A000430200084302000843020008430200081C
:1000B000430200084302000843020008430200080C
:1000C00043020008430200084302000843020008FC
:1000D00043020008430200084302000843020008EC
:1000E00043020008430200084302000843020008DC
:1000F00043020008430200084302000843020008CC
:1001000043020008430200084302000843020008BB
:1001100043020008430200084302000843020008AB
:10012000430200084302000843020008430200089B
:10013000430200084302000843020008430200088B
:10014000430200084302000843020008430200087B
:10015000430200084302000843020008430200086B
:10016000430200084302000843020008430200085B
:100170004302000843020008430200080000000098
:10018000430200084302000800F002F800F03CF8C7
:100190000AA090E8000C82448344AAF10107DA45E2
:1001A00001D100F031F8AFF2090EBAE80F0013F0F8
:1001B000010F18BFFB1A43F001031847700C000031
:1001C000900C0000103A24BF78C878C1FAD85207C2
:1001D00024BF30C830C144BF04680C6070470000C1
:1001E0000023002400250026103A28BF78C1FBD840
:1001F000520728BF30C148BF0B6070471FB500F0E1
:1002000007FE1FBD10B510BD00F0CFF81146FFF777
:10021000F5FF00F0DDFD00F0EDF803B4FFF7F2FFAD
:1002200003BC00F0F1F80000094880470948004786
:10023000FEE7FEE7FEE7FEE7FEE7FEE7FEE7FEE796
:10024000FEE7FEE704480549054A064B70470000F3
:100250009D0D000889010008700000207006002034
:10026000700200207002002053EA020C00F0698046
:100270002DE9F04B4FF00006002B1FBFB3FA83F5BA
:1002800003FA05F424FA05F65E4012BF1643B2FAEB
:1002900082F502FA05F4C5F120051EBF22FA05FC1D
:1002A00044EA0C04203556EA044C4FEA144418BFC3
:1002B000641C4FF000084FF00009904271EB030CF2
:1002C00039D3002919BFB1FA81F701FA07F6B0FA5C
:1002D00080F700FA07F6C7F120071EBF20FA07FCD7
:1002E00046EA0C062037B6FBF4FCA7EB0507103FE7
:1002F00007F01F0BCBF120060CFA0BFB2CFA06F6CD
:1003000044BFB3460026202FA4BF5E464FF0000B2B
:100310005BEA060C08BF4FF0010B19EB0B09ABFBB6
:10032000027C48EB0608C01B06FB02CC0BFB03CC8F
:1003300071EB0C01C1E70B46024641464846BDE859
:10034000F08B13B54FF000004FF00001AFF30080C9
:10035000BDE81C4070474FF0000200B513469446BC
:100360009646203922BFA0E80C50A0E80C50B1F10D
:100370002001BFF4F7AF090728BFA0E80C5048BF21
:100380000CC05DF804EB890028BF40F8042B08BFBF
:10039000704748BF20F8022B11F0804F18BF00F8BB
:1003A000012B7047704770477047754600F028F87A
:1003B000AE4605006946534620F00700854618B052
:1003C00020B5FFF73FFFBDE820404FF000064FF09B
:1003D00000074FF000084FF0000B21F00701AC467A
:1003E000ACE8C009ACE8C009ACE8C009ACE8C00999
:1003F0008D4670470446AFF300802046FFF70DFF9F
:10040000004870471000002001491820ABBEFEE7ED
:10041000260002007047FEE77047000070B50446F2
:1004200000F008F90546601C02D004480078044436
:1004300000F000F9401BA042FAD370BD000000207C
:100440002DE9F84FDFF89C910022A9F1040B032756
:100450004FF00F0C09F1040AABF1040E01250B68F3
:1004600095402B40AB426ED10C7904F00304012C73
:1004700001D0022C15D18668540007FA04F826EA48
:100480000806D1F80C8008FA04F848EA0608C0F813
:1004900008804468AC430D79C5F3001595402543A9
:1004A00045600C79E443A40708D0C568540007FAF6
:1004B00004F6B5438E68A6402E43C6600C7904F05E
:1004C0000304022C11D1D40800EB8406356A5407CA
:1004D000E40E0CFA04F825EA0805D1F8108008FAB1
:1004E00004F848EA0508C6F820800568540007FAB1
:1004F00004F6B5430E7906F00306A6402E430660C7
:100500004C6814F4403F66D0374C256845F480456C
:100510002560246822F0030504F480440094334CE1
:1005200005EB0408D8F808589407260F0CFA06F4CF
:10053000A5432F4CA04201D1002424E02D4CA04221
:1005400002D101241FE046E02B4CA04201D102243D
:1005500019E02A4CA04201D1032414E0284CA04207
:1005600001D104240FE0274CA04201D105240AE068
:10057000254CA04201D1062405E0244CA04201D123
:10058000072400E00824B4402C43C8F80848D9F8F0
:1005900000404D464E689C43F60200D51C432C603B
:1005A000DAF8004055464E689C43B60200D51C431D
:1005B0002C60DBF800405D464E689C43B60300D5D6
:1005C0001C432C60DEF8004075464E689C43F603E1
:1005D00000D51C432C60521C102AFFF43FAFBDE82D
:1005E000F88F0000083C01404438024000300140D0
:1005F000000002400004024000080240000C0240DB
:10060000001002400014024000180240001C02408A
:100610000069084000D001207047426921EA0203C6
:100620000A4043EA0241816170470AB18161704723
:100630000904FBE7014880687047000000000020C3
:1006400002488168027811448160704700000020F0
:100650000B4810B5016841F400710160016841F474
:1006600080610160016841F480710160032000F045
:1006700061F80F2000F006F800F024F8002010BD0B
:10068000003C024070B50D4D04464FF47A71287855
:10069000B1FBF0F00A490968B1FBF0F000F0D2FAC2
:1006A00048B9102C07D200222146501E00F022F833
:1006B00000206C6070BD012070BD000000000020B3
:1006C0000C0000200A4808B5016841F4804101602F
:1006D000006800F4804000900548001F016841F068
:1006E00080510160006800F08050009008BD00005B
:1006F00044380240F0B40E4B1B68C3F30223C3F12D
:100700000704042C00D904241D1D072D01D2002349
:1007100000E0DB1E012606FA04F56D1E0D409D402B
:100720009E40761E164045EA0601F0BC00F03FBB35
:100730000CED00E0064A00F0070110684FF6FF03D9
:10074000184040EA01200349084310607047000048
:100750000CED00E00000FA052DE9F0470D4604001D
:1007600065D0DFF81491D9F80000EFB200F007006F
:10077000A84207D289F80070D9F8000000F00700FD
:10078000A84254D120683D4E810712D5400703D5B9
:10079000306840F4E05030602078000703D53068BE
:1007A00040F4604030603068A16820F0F0000843F9
:1007B00030602078C0072DD03049606808390128A2
:1007C00012D0022813D0032811D009688907002904
:1007D0002DDA316821F0030101433160FFF72AFF70
:1007E000804641F2883A0EE009688903EFE709681C
:1007F0008901ECE7FFF71EFFA0EB0801514502D984
:100800000320BDE8F0873068616800F00C00B0EBB1
:10081000810FEFD1D9F80010484601F00701A94235
:1008200007D90770006800F00700A84201D0012036
:10083000E7E72078400705D53068E16820F4E0500C
:10084000084330602078000706D53068216920F41D
:10085000604040EAC100306000F018F83168084A92
:10086000C1F30311515CC84006490860064800689E
:10087000FFF708FF0020C4E7003C024008380240B0
:100880001A0E00080C00002004000020154810B5C6
:10089000006810F00C01144813D0431004290FD045
:1008A00008290ED10F4C241F216801F03F02216856
:1008B000490207D52068C0F38810A0FB030106E0B9
:1008C000184610BD2168C1F38811A1FB0001002367
:1008D000FFF7CAFC2168C1F30141491C4900B0FB84
:1008E000F1F010BD083802400024F4002DE9F84F63
:1008F000040075D02078DFF838A3C007AAF10405FA
:1009000048D00AF104000168C1F38101012908D02F
:100910000068C0F3810002280AD1DAF80000400222
:1009200006D52868800335D560680028E1D031E01D
:100930006068B0F5803F10D0B0F5A02F286810D0C7
:1009400020F480302860286820F4802028606068C7
:10095000A0B1FFF76FFE06460CE0286840F4803037
:10096000F4E740F480202860F7E7FFF763FE801B80
:10097000642871D828688003F7D50BE0FFF75AFE8A
:10098000064604E0FFF756FE801B6428F1D828686D
:100990008003F7D42078DFF89C9280074FF0000B9B
:1009A0003DD5A348001D016811F00C0F08D0006868
:1009B000C0F3810002280AD1DAF80000400206D410
:1009C0002868800715D5E068012809D111E0E068A2
:1009D000B8B10120C9F80000FFF72CFE064605E07B
:1009E00022E1FFF727FE801B0228C2D82868800773
:1009F000F7D52868216920F0F80040EAC100286096
:100A00000DE0C9F800B0FFF715FE064604E0FFF759
:100A100011FE801B02281FD828688007F7D4207891
:100A2000000722D5824F84486169703771B1012176
:100A30000160FFF7FFFD064604E0FFF7FBFD801BAA
:100A4000022809D838688007F7D50EE0C0F800B052
:100A5000FFF7F0FD064605E082E0FFF7EBFD801BA7
:100A600002287DD838688007F7D42078400765D5FC
:100A70006F484FF000083C300068C0000BD46C4851
:100A80003C30016841F08051016000684FF001087E
:100A900000F080500090694F3868C0050FD4386866
:100AA00040F480703860FFF7C5FD064604E0FFF7AC
:100AB000C1FD801B022853D83868C005F7D55C4FAC
:100AC000A0686C3701280FD00528386810D020F0B6
:100AD00001003860386820F004003860A068B0B1C8
:100AE000FFF7A8FD06460EE0386840F00100F4E785
:100AF00040F004003860F7E7FFF79CFD811B41F2EE
:100B00008830814263D838688007F5D50DE0FFF75B
:100B100091FD064606E0FFF78DFD811B41F288300E
:100B2000814254D838688007F5D4B8F1000F05D059
:100B30003F483C30016821F080510160A069B8B3A2
:100B40003B49091D0968C1F38101022946D00228E9
:100B5000584606D0C9F86000FFF76CFD044639E03E
:100B600035E04F46C9F86000FFF764FD064604E033
:100B7000FFF760FD801B022829D828688001F7D480
:100B8000D4E907010843A16A2D4A490802EB014153
:100B9000626A41EA8211084394F82C1040EA01612C
:100BA000CAF8001001203866FFF744FD044605E04E
:100BB0003CE0FFF73FFD001B022808D828688001B1
:100BC000F7D533E0FFF736FD001B022802D90320DA
:100BD000BDE8F88F28688001F4D427E00128F7D019
:100BE000DAF80000E26900F4800191421CD1226A27
:100BF00000F03F01914217D147F6C071626A01408F
:100C0000B1EB821F10D1A26A4FF0FF3300F44031E4
:100C100003EB5202B1EB024F06D194F82C1000F016
:100C20007060B0EB016F01D00120D1E70020CFE769
:100C30000438024000004742800E474200700040E6
:100C40000000FFFF10B5401EB0F1807F01D30120EE
:100C500010BD4FF0E02460610F21601700F0A7F88D
:100C60000020A06107202061002010BDFEE70000E9
:100C7000F0B587B014216846FFF76DFB1D480024CE
:100C8000016841F010010160016801F01001059157
:100C9000016841F080010160016801F08001059167
:100CA000016841F0010101600068134F00F001008C
:100CB0004FF480760590002231463846FFF7B5FCA8
:100CC000602002258DE8310069463846FFF7B8FB01
:100CD0000096CDE902540126694638460196FFF791
:100CE000AFFBCDE90054694638460296FFF7A8FBF2
:100CF00007B0F0BD3038024000100240FEE7FEE7CA
:100D000070477047FFF79CBC30B593B03021684600
:100D1000FFF721FB14210CA8FFF71DFB1D48002540
:100D2000016841F080510160006800F0805011902E
:100D30001948016841F4804101600068022400F410
:100D40008040119001200090000401908001CDE9C5
:100D5000064008AA0420A82182E813000B906846E8
:100D6000FFF7C4FD08B172B6FEE70CA90F2081E8B9
:100D700031004FF4A0500F904FF480501090052197
:100D80000CA8FFF7E9FC002801D072B6FEE713B00B
:100D900030BD000040380240007000400248016849
:100DA00041F470010160704788ED00E0FEE709073B
:100DB000090E002804DB00F1E02080F800147047E1
:100DC00000F00F0000F1E02080F8141D70470000D3
:100DD000FFF73EFCFFF798FFFFF74AFF0B4C4FF47D
:100DE0007A76A51502212046FFF712FC38B1294674
:100DF0002046FFF712FC3046FFF710FBF2E7002217
:100E000029462046FFF711FCECE7000000100240E5
:100E10004FF04070E1EE100A704700000000000043
:100E20000000010203040607080900004C0E000838
:100E30000000002010000000C40100085C0E000843
:100E40001000002060060000E00100080100000022
:0C0E500010000000000000000024F4006E
:040000050800018965
:00000001FF
